:0400000053EF00F0CA
:0E0008004082FACF01F0FBCF02F06AEF0DF05C
:100018004080D8CF0FF0E8CF10F0E0CF11F0FACF42
:1000280012F0FBCF13F0E9CF14F0EACF15F0E1CFCF
:1000380016F0E2CF17F0D9CF18F0DACF19F0F3CFD6
:100048001AF0F4CF1BF0F6CF1CF0F7CF1DF0F8CF65
:100058001EF0F5CF1FF01FC0F5FF1EC0F8FF1DC032
:10006800F7FF1CC0F6FF1BC0F4FF1AC0F3FF19C04E
:10007800DAFF18C0D9FF17C0E2FF16C0E1FF15C0AC
:10008800EAFF14C0E9FF13C0FBFF12C0FAFF11C05A
:10009800E0FF10C0E8FF0FC0D8FF40901000B0EF9D
:0200A8000EF058
:101000000001000A006400E80310271E0000000130
:101010000000002076616C3D00206B65793D00206A
:101020004E0057520020560025690023000069EC4D
:101030000BF0C2EC0FF07AEC0FF0030E216EE80E0D
:10104000206E16EC0FF0000E9A6E000E886EFA0EEF
:101050000001A76FFA0E0001A36F000EA46F000E2F
:10106000A56F000EA66F0F0EF66E100EF76E000E37
:10107000F86E0900F5CFA9F00A00F5CFAAF000013B
:10108000A069B3EC0DF000019A6F00019A510001C4
:10109000A16FA26BAB0E0001A125D96E000E00015D
:1010A000A221DA6EDF500001A86F000E00019F6FD1
:1010B000000E9E6F0001A0510001A819D8B4C3D141
:1010C000882A0001A2BF5AD00001A2BF08D00001A7
:1010D000A25154E10A0E0001A15DD8B04FD00F0E0D
:1010E000F66E100EF76E000EF86E0001A9510900A1
:1010F000F5180FE10001AA510900F518D8A409D08C
:101100000001A7510A0DF3500001A1250001A76FAE
:101110005BD1A1C09AF0A2C09BF0000E00019BBF62
:10112000FF0E9C6F9D6FA3C060F0A4C061F0A5C0CE
:1011300062F0A6C063F00A0E0001646F000E656FD6
:10114000000E666F000E676FEEEC0DF000019A5115
:10115000000160250001A36F00019B510001612186
:101160000001A46F00019C51000162210001A56FE4
:1011700000019D5100016321000132D0410E0001A8
:10118000A819D8A42FD00F0EF66E100EF76E000E11
:10119000F86E0001A9510900F51809E10001AA51F2
:1011A0000900F518D8A403D0000E0001A76F110E96
:1011B000F66E100EF76E000EF86E0001A9510900D0
:1011C000F51805E10001AA510900F518D8A4FCD0D2
:1011D000000E0001A36F000EA46F000EA56F000E9D
:1011E000A66FF2D0420E0001A819D8A42CD00F0E81
:1011F000F66E100EF76E000EF86E0001A951090090
:10120000F51808E10001AA510900F518D8A402D088
:101210000001A72B110EF66E100EF76E000EF86E81
:101220000001A9510900F51805E10001AA510900C2
:10123000F518D8A4C9D0010E0001A327000EA423DD
:10124000A523A623C1D0430E0001A819D8A42BD0F2
:101250000F0EF66E100EF76E000EF86E0001A9511B
:101260000900F51808E10001AA510900F518D8A4F1
:1012700002D00001A707110EF66E100EF76E000ED9
:10128000F86E0001A9510900F51805E10001AA5105
:101290000900F518D8A498D00001A307000EA45B9C
:1012A000A55BA65B91D0440E0001A819D8A435D047
:1012B0000F0EF66E100EF76E000EF86E0001A951BB
:1012C0000900F5180CE10001AA510900F518D8A48D
:1012D00006D0110EF66E100EF76E000E16D0110E1F
:1012E000F66E100EF76E000EF86E0001A95109009F
:1012F000F5186AE10001AA510900F518D8A464D0D4
:101300000F0EF66E100EF76E000EF86E0900F5CF98
:10131000A9F00A00F5CFAAF057D0230E0001A819B2
:10132000D8A429D0110EF66E100EF76E000EF86ECE
:101330000001A9510900F51818E10001AA5109009E
:10134000F518D8A412D0A3C06DF0A4C06EF0A5C04B
:101350006FF0A6C070F00001A75181EC0CF0000EF8
:10136000216E640E206E16EC0FF0000E00019F6FD0
:10137000010E9E6F29D02A0E0001A819D8A424D0EE
:10138000110EF66E100EF76E000EF86E0001A951E8
:101390000900F51819E10001AA510900F518D8A4AF
:1013A00013D0A3C068F00001A751A6EC0FF0010E06
:1013B0000001A327000EA423A523A623000E216E5F
:1013C000640E206E16EC0FF09EC090F09FC091F05E
:1013D0000001A751F4EC0AF0000E236EC00EF8ECE9
:1013E0000EF0010E236E220E0001A925F66E100EDE
:1013F000AA21F76EF86A000EF8220800F550F8EC02
:101400000EF0190E0001636F100E0001646FD5EC31
:101410000CF0010E236E0001A851F8EC0EF0130E33
:101420000001636F100E0001646FD5EC0CF0A3C0D7
:1014300078F0A4C079F0A5C07AF0A6C07BF0D9EC12
:101440000EF0A8C0A0F0000E216E640E206E16EC07
:101450000FF017D66C0E0001716F000E0001726F55
:10146000ACD0250E00017719D8B40AD068C0D9FFD6
:1014700069C0DAFF77C0DFFF0001684B692B9DD0A0
:10148000000E0001736F6AC0F6FF6BC0F7FF00012A
:101490006A4B6B2B000EF86E0800F5CF77F0000159
:1014A0007751000AD8B499D0640AD8B403D00D0A91
:1014B000D8A483D071C0D9FF72C0DAFFDECF75F037
:1014C000DDCF76F0020E00017127000E72230001BD
:1014D00076AF08D0030E000173130001756D761FFF
:1014E000D8B0762B010E0001776F050E0001771939
:1014F000D8B419D000017751020D010EF324F66E15
:10150000100EF420F76EF86A000EF8220900F5506C
:101510000001755D0900F55000017659D8A003D08F
:101520000001772BE2D773C070F0030E0001701733
:10153000D8B409D068C0D9FF69C0DAFF2D0EDF6EBC
:101540000001684B692B77C074F031D000017451F1
:10155000020D010EF324F66E100EF420F76EF86AF9
:10156000000EF8220900F5CF22F00A00F5CF23F093
:1015700075C020F076C021F055EC0EF020C063F06D
:1015800021C064F0000E0001666F0A0E656F24EC46
:101590000EF000016351300F0001776F68C0D9FF72
:1015A00069C0DAFF77C0DFFF0001684B692B0001DB
:1015B000740700017429D8A4C9D76AC0F6FF6BC0AC
:1015C000F7FF00016A4B6B2B000EF86E0800F5CF99
:1015D00077F000017751D8A444D768C0D9FF69C01B
:1015E000DAFF000EDF6E12000001996F000E236E0D
:1015F000010EF8EC0EF00001905100019111D8A4F9
:1016000032D097C060F098C061F00001995193EC1E
:101610000FF02B0E0001636F100E0001646FD5EC0C
:101620000CF0000199510001786F796B7A6B7B6B3C
:10163000D9EC0EF0250E0001636F100E0001646FEF
:10164000D5EC0CF097C0D9FF98C0DAFFDF5000014D
:10165000926F000192510001786F796B7A6B7B6B0E
:10166000D9EC0EF012000001900500019111D8A4F0
:1016700012000001995126EC0CF068C093F069C08B
:1016800094F06AC095F06BC096F02B0E0001636F6A
:10169000100E0001646FD5EC0CF0000199510001AF
:1016A000786F796B7A6B7B6BD9EC0EF01F0E0001B3
:1016B000636F100E0001646FD5EC0CF093C078F0EE
:1016C00094C079F095C07AF096C07BF0D9EC0EF01A
:1016D0001200000E966EF80E996E90929090909473
:1016E000000E216EC80E206E16EC0FF0000E236E59
:1016F000300EF8EC0EF0000E236E300EF8EC0EF00B
:10170000000E236E300EF8EC0EF0000E236E380E35
:10171000F8EC0EF0000E236E100EF8EC0EF0000E3A
:10172000236E0F0EF8EC0EF0000E236E060EF8EC92
:101730000EF0000E236E010EF8EC0EF0000E216E7E
:10174000640E206E16EC0FF0000E236E8A0EF8EC7D
:101750000EF0010E236E4E0EF8EC0EF0010E236E0D
:10176000410EF8EC0EF0010E236E4D0EF8EC0EF06B
:10177000010E236E450EF8EC0EF0000E236EC00E27
:10178000F8EC0EF0010E236E230EF8EC0EF01200B2
:10179000000E0001686F000E696F000E6A6F000E88
:1017A0006B6F0001645100016511000166110001B9
:1017B0006711D8B442D0010E00016C6F08D000014F
:1017C000D890643765376637673700016C2B0001A6
:1017D00067AFF5D70001D890683769376A376B373C
:1017E000000164510001605D000165510001615913
:1017F00000016651000162590001675100016359FF
:10180000D8A012D0000164510001605F0001655151
:101810000001615B000166510001625B00016751DC
:101820000001635B000168810001D8906733663373
:101830006533643300016C2FCDD768C060F069C098
:1018400061F06AC062F06BC063F0120000016C6F5F
:10185000000E00016D6F000E6E6F000E6F6F000EB8
:10186000706F000E0001716F000E726F000E736FCB
:10187000000E746F000E0001756F71C060F072C0D1
:1018800061F073C062F074C063F00A0E0001646F0F
:10189000000E656F000E666F000E676FEEEC0DF0C8
:1018A00000017551000160250001716F000E0001FB
:1018B00061210001726F000E000162210001736F4F
:1018C000000E000163210001746F00016C510001E2
:1018D0006D2566EC0FF00001756F010E00016D279C
:1018E000000E6E236F23702300017529D8A4C5D77D
:1018F00071C068F072C069F073C06AF074C06BF0B8
:1019000012000001716F000E0001726F00016D5135
:1019100000016E1100016F1100017011D8B43BD0AD
:101920006DC060F06EC061F06FC062F070C063F0B7
:101930000A0E0001646F000E656F000E666F000EE8
:10194000676F20EC0DF0000160510001686F00012D
:10195000715100017225A6EC0FF06DC060F06EC0F1
:1019600061F06FC062F070C063F00A0E0001646F36
:10197000000E656F000E666F000E676FC8EC0BF00F
:1019800060C06DF061C06EF062C06FF063C070F057
:101990000001722BBBD7FF0E0001686F000171516F
:1019A00000017225A6EC0FF01200000E0001686F16
:1019B000000E676F24D0010E236E000167510001F5
:1019C00063250001656F0001685100016421000179
:1019D000666F65C0F6FF66C0F7FF000EF86E0F0E6B
:1019E000F76403D00800F55005D0F6CFE9FFF7CF34
:1019F000EAFFEF50F8EC0EF00001674B682B000196
:101A00006751000163250001656F00016851000105
:101A100064210001666F65C0F6FF66C0F7FF000E27
:101A2000F86E0F0EF76403D00800F55005D0F6CF1E
:101A3000E9FFF7CFEAFFEF500009D8B41200BBD797
:101A40000001645100016511000166110001671178
:101A5000D8B437D0010E206E07D00001D89064377B
:101A6000653766376737202A000167AFF6D7000170
:101A700064510001605D0001655100016159000180
:101A80006651000162590001675100016359D8A0F5
:101A900010D0000164510001605F00016551000138
:101AA000615B000166510001625B0001675100014A
:101AB000635B0001D8906733663365336433202E4F
:101AC000D6D760C060F061C061F062C062F063C0F0
:101AD00063F01200E9CF03F0EACF04F0E1CF05F0A4
:101AE000E2CF06F0D9CF07F0DACF08F0F3CF09F054
:101AF000F4CF0AF0F6CF0BF0F7CF0CF0F8CF0DF0E3
:101B0000F5CF0EF0A4A611D03C4A3D2A3DBE0CD024
:101B1000E80E3C5C030E3D58D8A006D03E4A3F2A52
:101B2000000E3D6E000E3C6EA4960EC0F5FF0DC07B
:101B3000F8FF0CC0F7FF0BC0F6FF0AC0F4FF09C0A6
:101B4000F3FF08C0DAFF07C0D9FF06C0E2FF05C0F7
:101B5000E1FF04C0EAFF03C0E9FF02C0FBFF01C0D0
:101B6000FAFF4092110000016069FE0E0001636FF0
:101B7000000E0001626F000E616F000162BF08D0AD
:101B80000001625128E1040E0001615DD8B023D04C
:101B900063C08CFF83CF64F0000164510F09000122
:101BA000646F00016451000163150001646F00015E
:101BB000635100016419D8B407D00001645134ECBA
:101BC0000FF00001606F07D0D8800001633700017B
:101BD000614B622BD2D7000160511200000E206EC3
:101BE000000E216E000E226E000E236E000160A119
:101BF0000CD0000164512026000165512122000112
:101C0000665122220001675123220001D8906437D7
:101C10006537663767370001D890633362336133C5
:101C20006033000160510001611100016211000187
:101C30006311D8A4DBD720C060F021C061F022C0BE
:101C400062F023C063F012000001655100016611CB
:101C5000D8B426D0010E0001676F06D00001D890DD
:101C6000653766370001672B000166AFF7D70001C3
:101C700065510001635D0001665100016459D8A0FF
:101C800008D0000165510001635F00016651000149
:101C9000645B0001D890663365330001672FE7D796
:101CA00063C063F064C064F01200000E0001626F54
:101CB000000E616F22502310D8B421D0010E000114
:101CC000606F05D0D890223623360001602B23AEFA
:101CD000F9D70001D890613762372250205C235039
:101CE0002158D8A006D02250205E2350215A00014E
:101CF0006181D890233222320001602FEAD761C07F
:101D000020F062C021F012000001626F000E00019D
:101D1000636F829C060EB7EC0FF0050EB7EC0FF068
:101D2000828C000EC96EBFEC0FF0C9CF63F00001CA
:101D300063A1EFD7829C020EB7EC0FF0000EB7EC58
:101D40000FF000016251B7EC0FF02350B7EC0FF029
:101D5000828C000E216E1E0E206E16EC0FF012000B
:101D60003F6A3E6A3D6A3C6A5E0EF66E1F0EF76E73
:101D7000000EF86E00EEABF010EE10F00900F5CF9B
:101D8000EEFFE550E150FAE10E0EF66E1F0EF76E13
:101D9000000EF86E00EE24F010EE18F00900F5CFFA
:101DA000EEFFE550E150FAE140904092000117EF5C
:101DB00008F07C0E0001686F000E0001696F280EAC
:101DC00000016A6F100E00016B6F78C06CF079C073
:101DD0006DF07AC06EF07BC06FF02AEC0AF07C0EDA
:101DE0000001636F000E0001646FD5EC0CF012006F
:101DF0000001626F23B002D0909401D09084000E55
:101E0000216E010E206E16EC0FF062C08DFF9080E7
:101E1000000E216E010E206E4DEC0FF09090000E22
:101E2000216E320E206E4DEC0FF01200000E0001FC
:101E3000616F000E606F0BD0090E226E1C0EE82E33
:101E4000FED7222EFCD700D00001604B612B205022
:101E50000001605D00016151800A226E2150800AFC
:101E60002258D8B01200E8D7216E000E226E0F0E55
:101E7000226401D010D02250010D240EF324D96E1B
:101E8000000EF420DA6E2150DE18D8A402D02250C1
:101E90001200222AECD7FF0E1200000E0001616F23
:101EA000000E606F06D000D000D000D00001604B63
:101EB000612B20500001605D00016151800A226E9B
:101EC0002150800A2258D8B01200EDD7216E829C92
:101ED000030EB7EC0FF0000EB7EC0FF02150B7EC8B
:101EE0000FF0000EC96EBFEC0FF0C9CF22F0828C4C
:101EF00022501200828C949C94969488949A000E9E
:101F00007E6E9DEC0FF0000EB7EC0FF01200EB7739
:101F10007B7DB7BBBDD7DBDD7EBEDEEEE7ED1B5BB9
:101F2000324A1B5B3248236E235066EC0FF060C0D0
:101F3000D9FF61C0DAFFDF6E1200220EC66EC78CB9
:101F40009496949A000EB7EC0FF012000001696F9E
:101F500068C023F00001695184EC0EF012003031AA
:101F60003233343536373839414243442A23206EE0
:101F700020C0C9FFC7A0FED7C9CF20F01200C7B04C
:0A1F80001200FDD7F00E956E12005E
:020000040001F9
:06FFF800A0F4C4FFF8F7BD
:00000001FF
