:0400000053EF00F0CA
:0E0008004082FACF01F0FBCF02F0B4EF00F01F
:100018004080D8CF0FF0E8CF10F0E0CF11F0FACF42
:1000280012F0FBCF13F0E9CF14F0EACF15F0E1CFCF
:1000380016F0E2CF17F0D9CF18F0DACF19F0F3CFD6
:100048001AF0F4CF1BF0F6CF1CF0F7CF1DF0F8CF65
:100058001EF0F5CF1FF01FC0F5FF1EC0F8FF1DC032
:10006800F7FF1CC0F6FF1BC0F4FF1AC0F3FF19C04E
:10007800DAFF18C0D9FF17C0E2FF16C0E1FF15C0AC
:10008800EAFF14C0E9FF13C0FBFF12C0FAFF11C05A
:10009800E0FF10C0E8FF0FC0D8FF4090100039EF14
:1000A80001F0000E966EF80E996E909290909094D2
:1000B800000E216EC80E206E1BEC01F0000E236EA0
:1000C800300EFDEC00F0000E236E300EFDEC00F05B
:1000D800000E236E300EFDEC00F0000E236E380E7D
:1000E800FDEC00F0000E236E100EFDEC00F0000E8B
:1000F800236E0F0EFDEC00F0000E236E060EFDECD5
:1001080000F0000E236E010EFDEC00F0000E216ED3
:10011800640E206E1BEC01F0000E236E8A0EFDECBF
:1001280000F0010E236E4E0EFDEC00F0010E236E62
:10013800410EFDEC00F0010E236E4D0EFDEC00F0BB
:10014800010E236E450EFDEC00F0000E236EC00E6E
:10015800FDEC00F0010E236E230EFDEC00F0120002
:10016800E9CF03F0EACF04F0E1CF05F0E2CF06F0E3
:10017800D9CF07F0DACF08F0F3CF09F0F4CF0AF0BF
:10018800F6CF0BF0F7CF0CF0F8CF0DF0F5CF0EF05F
:10019800A4A611D03C4A3D2A3DBE0CD0E80E3C5CDA
:1001A800030E3D58D8A006D03E4A3F2A000E3D6EA9
:1001B800000E3C6EA4960EC0F5FF0DC0F8FF0CC0F3
:1001C800F7FF0BC0F6FF0AC0F4FF09C0F3FF08C031
:1001D800DAFF07C0D9FF06C0E2FF05C0E1FF04C08F
:1001E800EAFF03C0E9FF02C0FBFF01C0FAFF40922B
:1001F80011000001626F23B002D0909401D0908466
:10020800000E216E010E206E1BEC01F062C08DFF06
:100218009080000E216E010E206E52EC01F090903D
:10022800000E216E320E206E52EC01F01200000E0C
:100238000001616F000E606F0BD0090E226E1C0E5C
:10024800E82EFED7222EFCD700D00001604B612B90
:1002580020500001605D00016151800A226E21502A
:10026800800A2258D8B01200E8D73F6A3E6A3D6A31
:100278003C6AD60EF66E020EF76E000EF86E00EEB1
:1002880024F010EE18F00900F5CFEEFFE550E1502C
:10029800FAE140904092000177EF01F0000E000172
:1002A800616F000E606F06D000D000D000D0000152
:1002B800604B612B20500001605D00016151800A94
:1002C800226E2150800A2258D8B01200EDD7EB7761
:1002D8007B7DB7BBBDD7DBDD7EBEDEEEE7ED1B5B0E
:1002E800324A1B5B324855EC00F0030E216EE80ED3
:0A02F800206E1BEC01F053EF00F044
:020000040001F9
:06FFF800A0F4C4FFF8F7BD
:00000001FF
