:0400000053EF00F0CA
:0E0008004082FACF01F0FBCF02F016EF0BF0B2
:100018004080D8CF0FF0E8CF10F0E0CF11F0FACF42
:1000280012F0FBCF13F0E9CF14F0EACF15F0E1CFCF
:1000380016F0E2CF17F0D9CF18F0DACF19F0F3CFD6
:100048001AF0F4CF1BF0F6CF1CF0F7CF1DF0F8CF65
:100058001EF0F5CF1FF01FC0F5FF1EC0F8FF1DC032
:10006800F7FF1CC0F6FF1BC0F4FF1AC0F3FF19C04E
:10007800DAFF18C0D9FF17C0E2FF16C0E1FF15C0AC
:10008800EAFF14C0E9FF13C0FBFF12C0FAFF11C05A
:10009800E0FF10C0E8FF0FC0D8FF4090100062EFEB
:0200A8000CF05A
:101000000001000A006400E80310271E0000000130
:101010000000002076616C3D00206B65793D005733
:0B10200052002056002569002300004C
:10102C006CEC0AF091EC0DF052EC0DF0030E216E0D
:10103C00E80E206ED1EC0CF0000E9A6E000E886E4D
:10104C00000E0001866F000E0001876F0F0EF66E0A
:10105C00100EF76E000EF86E0900F5CF8BF00A003B
:10106C00F5CF8CF0000185699CEC0BF00001846FCE
:10107C00000184510001886F896B8D0E0001882559
:10108C00D96E000E00018921DA6EDF5000018A6FE3
:10109C000001855100018A19D8B447D1882A000172
:1010AC0089BF2CD0000189BF08D00001895126E1ED
:1010BC000A0E0001885DD8B021D00F0EF66E100E0E
:1010CC00F76E000EF86E00018B510900F5180FE158
:1010DC0000018C510900F518D8A409D000018651E3
:1010EC000A0DF350000188250001866FE3D0000142
:1010FC0087510A0DF350000188252BD0410E0001B9
:10110C008A19D8A429D00F0EF66E100EF76E000EA9
:10111C00F86E00018B510900F51809E100018C51A2
:10112C000900F518D8A403D0000E0001866F110E2B
:10113C00F66E100EF76E000EF86E00018B51090062
:10114C00F51805E100018C510900F518D8A4B2D0AE
:10115C00000E0001876FAED0420E00018A19D8A490
:10116C0027D00F0EF66E100EF76E000EF86E000103
:10117C008B510900F51808E100018C510900F51894
:10118C00D8A402D00001862B110EF66E100EF76E4D
:10119C00000EF86E00018B510900F51805E10001F5
:1011AC008C510900F518D8A485D00001872B82D06A
:1011BC00430E00018A19D8A427D00F0EF66E100E1C
:1011CC00F76E000EF86E00018B510900F51808E15E
:1011DC0000018C510900F518D8A402D00001860733
:1011EC00110EF66E100EF76E000EF86E00018B519C
:1011FC000900F5185FE100018C510900F518D8A41D
:10120C0059D00001870756D0440E00018A19D8A482
:10121C0035D00F0EF66E100EF76E000EF86E000144
:10122C008B510900F5180CE100018C510900F518DF
:10123C00D8A406D0110EF66E100EF76E000E16D056
:10124C00110EF66E100EF76E000EF86E00018B513B
:10125C000900F5182FE100018C510900F518D8A4EC
:10126C0029D00F0EF66E100EF76E000EF86E0900F8
:10127C00F5CF8BF00A00F5CF8CF01CD02A0E0001B4
:10128C008A19D8A417D0110EF66E100EF76E000E38
:10129C00F86E00018B510900F5180CE100018C511E
:1012AC000900F518D8A406D087C022F00001865199
:1012BC005FEC0BF00001882900018911D8B404D02F
:1012CC000001865137EC0CF0000E236EC00EB3EC0F
:1012DC000CF0010E236E1F0E00018B25F66E100E06
:1012EC008C21F76EF86A000EF8220800F550B3EC6A
:1012FC000CF0190E0001636F100E0001646FCBEC43
:10130C000AF0010E236E00018A51B3EC0CF0130E9F
:10131C000001636F100E0001646FCBEC0AF000014A
:10132C008751EFEC0CF08AC085F0000E216E640E34
:10133C00206ED1EC0CF098D66C0E00016F6F000E85
:10134C000001706FACD0250E00017519D8B40AD00D
:10135C0068C0D9FF69C0DAFF75C0DFFF0001684BB8
:10136C00692B9DD0000E0001716F6AC0F6FF6BC037
:10137C00F7FF00016A4B6B2B000EF86E0800F5CFDF
:10138C0075F000017551000AD8B499D0640AD8B42C
:10139C0003D00D0AD8A483D06FC0D9FF70C0DAFF78
:1013AC00DECF73F0DDCF74F0020E00016F27000E5C
:1013BC007023000174AF08D0030E000171130001FB
:1013CC00736D741FD8B0742B010E0001756F050E70
:1013DC0000017519D8B419D000017551020D010E18
:1013EC00F324F66E100EF420F76EF86A000EF82255
:1013FC000900F5500001735D0900F55000017459A6
:10140C00D8A003D00001752BE2D771C06EF0030E8B
:10141C0000016E17D8B409D068C0D9FF69C0DAFFD3
:10142C002D0EDF6E0001684B692B75C072F031D048
:10143C0000017251020D010EF324F66E100EF42011
:10144C00F76EF86A000EF8220900F5CF22F00A00B8
:10145C00F5CF23F073C020F074C021F008EC0CF031
:10146C0020C063F021C064F0000E0001666F0A0E0C
:10147C00656FD7EC0BF000016351300F0001756FF5
:10148C0068C0D9FF69C0DAFF75C0DFFF0001684B87
:10149C00692B0001720700017229D8A4C9D76AC050
:1014AC00F6FF6BC0F7FF00016A4B6B2B000EF86E5A
:1014BC000800F5CF75F000017551D8A444D768C069
:1014CC00D9FF69C0DAFF000EDF6E1200000E966EB7
:1014DC00F80E996E909290909094000E216EC80E1A
:1014EC00206ED1EC0CF0000E236E300EB3EC0CF031
:1014FC00000E236E300EB3EC0CF0000E236E300E8B
:10150C00B3EC0CF0000E236E380EB3EC0CF0000EA6
:10151C00236E100EB3EC0CF0000E236E0F0EB3EC1A
:10152C000CF0000E236E060EB3EC0CF0000E236EC6
:10153C00010EB3EC0CF0000E216E640E206ED1EC9B
:10154C000CF0000E236E8A0EB3EC0CF0010E236E21
:10155C004E0EB3EC0CF0010E236E410EB3EC0CF0FE
:10156C00010E236E4D0EB3EC0CF0010E236E450EE6
:10157C00B3EC0CF0000E236EC00EB3EC0CF0010EAD
:10158C00236E230EB3EC0CF01200000E0001686FFA
:10159C00000E676F24D0010E236E0001675100010D
:1015AC0063250001656F0001685100016421000191
:1015BC00666F65C0F6FF66C0F7FF000EF86E0F0E83
:1015CC00F76403D00800F55005D0F6CFE9FFF7CF4C
:1015DC00EAFFEF50B3EC0CF00001674B682B0001F5
:1015EC006751000163250001656F0001685100011E
:1015FC0064210001666F65C0F6FF66C0F7FF000E40
:10160C00F86E0F0EF76403D00800F55005D0F6CF36
:10161C00E9FFF7CFEAFFEF500009D8B41200BBD7AF
:10162C00E9CF03F0EACF04F0E1CF05F0E2CF06F00A
:10163C00D9CF07F0DACF08F0F3CF09F0F4CF0AF0E6
:10164C00F6CF0BF0F7CF0CF0F8CF0DF0F5CF0EF086
:10165C00A4A611D03C4A3D2A3DBE0CD0E80E3C5C01
:10166C00030E3D58D8A006D03E4A3F2A000E3D6ED0
:10167C00000E3C6EA4960EC0F5FF0DC0F8FF0CC01A
:10168C00F7FF0BC0F6FF0AC0F4FF09C0F3FF08C058
:10169C00DAFF07C0D9FF06C0E2FF05C0E1FF04C0B6
:1016AC00EAFF03C0E9FF02C0FBFF01C0FAFF409252
:1016BC00110000016E6FC65000016A6F6B6B6C6B92
:1016CC006D6BC6CFC6FF000E00016F6F839E060EBA
:1016DC0086EC0DF0050E86EC0DF0838E000EC96EB7
:1016EC008EEC0DF0C9CF6FF000016FA1EFD78EEC2F
:1016FC000DF0020E86EC0DF0000E86EC0DF00001E4
:10170C006E5186EC0DF022C0C9FF8EEC0DF0C9CFE6
:10171C0068F00001696B9E96838E6AC0C6FF8BECE5
:10172C000CF020502110D8B41200F9D700016069D8
:10173C00FE0E0001636F000E0001626F000E616F00
:10174C00000162BF08D00001625128E1040E0001C3
:10175C00615DD8B023D063C08CFF83CF64F00001EF
:10176C0064510F090001646F00016451000163159D
:10177C000001646F0001635100016419D8B407D0F3
:10178C00000164510CEC0DF00001606F07D0D880A3
:10179C00000163370001614B622BD2D7000160510D
:1017AC0012000001655100016611D8B426D0010E5B
:1017BC000001676F06D00001D890653766370001CD
:1017CC00672B000166AFF7D7000165510001635D1F
:1017DC000001665100016459D8A008D00001655180
:1017EC000001635F000166510001645B0001D89049
:1017FC00663365330001672FE7D763C063F064C0BD
:10180C0064F01200000E0001626F000E616F225036
:10181C002310D8B421D0010E0001606F05D0D890F0
:10182C00223623360001602B23AEF9D70001D89065
:10183C00613762372250205C23502158D8A006D043
:10184C002250205E2350215A00016181D89023320E
:10185C0022320001602FEAD761C020F062C021F073
:10186C0012000001836F000E236E010EB3EC0CF01E
:10187C0081C060F082C061F0000183516BEC0DF00F
:10188C00280E0001636F100E0001646FCBEC0AF0A0
:10189C0000018351EFEC0CF0220E0001636F100E6F
:1018AC000001646FCBEC0AF081C0D9FF82C0DAFF73
:1018BC00DF50EFEC0CF012003F6A3E6A3D6A3C6A66
:1018CC00FC0EF66E1A0EF76E000EF86E00EE8DF032
:1018DC0010EE10F00900F5CFEEFFE550E150FAE103
:1018EC00BE0EF66E1A0EF76E000EF86E00EE24F0B9
:1018FC0010EE18F00900F5CFEEFFE550E150FAE1DB
:10190C0040904092000116EF08F0C6500001606F45
:10191C00616B626B636BC6CFC6FF839E050EC96E8F
:10192C008EEC0DF0C9500001646F656B666B676BD4
:10193C009E96000EC96E8EEC0DF0C9500001646FBE
:10194C00656B666B676B9E96838E60C0C6FF010EDF
:10195C0000016415206E216A12000001626F23B031
:10196C0002D0909401D09084000E216E010E206E56
:10197C00D1EC0CF062C08DFF9080000E216E010E38
:10198C00206E25EC0DF09090000E216E320E206E24
:10199C0025EC0DF01200000E0001616F000E606F5F
:1019AC000BD0090E226E1C0EE82EFED7222EFCD771
:1019BC0000D00001604B612B20500001605D0001E4
:1019CC006151800A226E2150800A2258D8B0120030
:1019DC00E8D70001806F760E0001686F000E0001E1
:1019EC00696F250E00016A6F100E00016B6F80C0CD
:1019FC006CF000016D6BA2EC09F0760E0001636FC8
:101A0C00000E0001646FCBEC0AF01200216E000E88
:101A1C00226E0F0E226401D010D02250010D240E24
:101A2C00F324D96E000EF420DA6E2150DE18D8A4FF
:101A3C0002D022501200222AECD7FF0E1200000E08
:101A4C000001616F000E606F06D000D000D000D096
:101A5C000001604B612B20500001605D0001615161
:101A6C00800A226E2150800A2258D8B01200EDD77D
:101A7C00216E839E030E86EC0DF0000E86EC0DF0AD
:101A8C00215086EC0DF0000EC96E8EEC0DF0C9CF16
:101A9C0022F0838E22501200838E959E9496948809
:101AAC00949A000E7E6E75EC0DF0000E86EC0DF027
:101ABC001200EB777B7DB7BBBDD7DBDD7EBEDEEEE8
:101ACC00E7ED1B5B324A1B5B3248236E23503EEC26
:101ADC000DF060C0D9FF61C0DAFFDF6E1200220E7C
:101AEC00C66EC78C9496949A000E86EC0DF012007C
:101AFC0030313233343536373839414243442A2376
:101B0C00206E20C0C9FFC7A0FED7C9CF20F012009D
:0C1B1C00C7B01200FDD7F00E956E12004D
:020000040001F9
:06FFF800A0F4C4FFF8F7BD
:00000001FF
